:020000040000FA
:040000008A110D282C
:10000800FE00030E83120313A9000A08AA008A112E
:100018002A288A110F288A1186208A11A0008A119D
:1000280087208A11A1008A1188208A11A2008A11CA
:1000380089208A11A3008A118A208A11A4008A11B2
:100048008B208A11A50083018A1176280B1C2D2884
:100058002E286F28061B312832283E282203230425
:10006800031D372838283E280130A4070318A50A9D
:100078000030A507861B412842284E28200321046A
:10008800031D472848284E280130A4020030031CCD
:10009800A503A502060EA600A60C260C0139A7008A
:1000A800A8012708A2002808A300060D060D01399B
:1000B800A600A7012608A0002708A10000302502F5
:1000C800143003192402031C6A286B286D280714AE
:1000D8006E2807100B102A088A00290E8300FE0ECE
:1000E8007E0E09008316031306178617811307105F
:1000F8008312031307100B108B150B168B1783280D
:100108008A110D28013400340134003412340034CB
:02400E00FB3F76
:00000001FF
